{
  "_format": "hh-sol-artifact-1",
  "contractName": "Election",
  "sourceName": "contracts/Elections.sol",
  "abi": [
    {
      "inputs": [
        {
          "internalType": "address[]",
          "name": "initialVoters",
          "type": "address[]"
        }
      ],
      "stateMutability": "nonpayable",
      "type": "constructor"
    },
    {
      "anonymous": false,
      "inputs": [
        {
          "indexed": true,
          "internalType": "address",
          "name": "candidate",
          "type": "address"
        }
      ],
      "name": "CandidacyDeclared",
      "type": "event"
    },
    {
      "anonymous": false,
      "inputs": [
        {
          "indexed": true,
          "internalType": "enum Election.Stage",
          "name": "stage",
          "type": "uint8"
        }
      ],
      "name": "StageTransition",
      "type": "event"
    },
    {
      "anonymous": false,
      "inputs": [
        {
          "indexed": true,
          "internalType": "address",
          "name": "voter",
          "type": "address"
        },
        {
          "indexed": true,
          "internalType": "address",
          "name": "candidate",
          "type": "address"
        }
      ],
      "name": "Voted",
      "type": "event"
    },
    {
      "anonymous": false,
      "inputs": [
        {
          "indexed": true,
          "internalType": "address",
          "name": "voter",
          "type": "address"
        }
      ],
      "name": "VoterRegistered",
      "type": "event"
    },
    {
      "anonymous": false,
      "inputs": [
        {
          "indexed": true,
          "internalType": "address",
          "name": "winner",
          "type": "address"
        }
      ],
      "name": "WinnerAnnounced",
      "type": "event"
    },
    {
      "inputs": [],
      "name": "announceWinner",
      "outputs": [],
      "stateMutability": "nonpayable",
      "type": "function"
    },
    {
      "inputs": [
        {
          "internalType": "address",
          "name": "",
          "type": "address"
        }
      ],
      "name": "candidateTokenContracts",
      "outputs": [
        {
          "internalType": "address",
          "name": "",
          "type": "address"
        }
      ],
      "stateMutability": "view",
      "type": "function"
    },
    {
      "inputs": [
        {
          "internalType": "uint256",
          "name": "",
          "type": "uint256"
        }
      ],
      "name": "candidates",
      "outputs": [
        {
          "internalType": "address",
          "name": "",
          "type": "address"
        }
      ],
      "stateMutability": "view",
      "type": "function"
    },
    {
      "inputs": [
        {
          "internalType": "address",
          "name": "",
          "type": "address"
        }
      ],
      "name": "candidatesMapping",
      "outputs": [
        {
          "internalType": "bool",
          "name": "isCandidate",
          "type": "bool"
        }
      ],
      "stateMutability": "view",
      "type": "function"
    },
    {
      "inputs": [
        {
          "internalType": "address",
          "name": "",
          "type": "address"
        }
      ],
      "name": "candidatesVotes",
      "outputs": [
        {
          "internalType": "uint256",
          "name": "",
          "type": "uint256"
        }
      ],
      "stateMutability": "view",
      "type": "function"
    },
    {
      "inputs": [],
      "name": "currentStage",
      "outputs": [
        {
          "internalType": "enum Election.Stage",
          "name": "",
          "type": "uint8"
        }
      ],
      "stateMutability": "view",
      "type": "function"
    },
    {
      "inputs": [],
      "name": "currentWinner",
      "outputs": [
        {
          "internalType": "address",
          "name": "",
          "type": "address"
        }
      ],
      "stateMutability": "view",
      "type": "function"
    },
    {
      "inputs": [
        {
          "internalType": "address",
          "name": "candidateToken",
          "type": "address"
        }
      ],
      "name": "declareCandidacy",
      "outputs": [],
      "stateMutability": "nonpayable",
      "type": "function"
    },
    {
      "inputs": [],
      "name": "destroyContract",
      "outputs": [],
      "stateMutability": "nonpayable",
      "type": "function"
    },
    {
      "inputs": [],
      "name": "electionId",
      "outputs": [
        {
          "internalType": "uint256",
          "name": "",
          "type": "uint256"
        }
      ],
      "stateMutability": "view",
      "type": "function"
    },
    {
      "inputs": [],
      "name": "getRegisteredVotersCount",
      "outputs": [
        {
          "internalType": "uint256",
          "name": "",
          "type": "uint256"
        }
      ],
      "stateMutability": "view",
      "type": "function"
    },
    {
      "inputs": [],
      "name": "getResultOfPreviousElections",
      "outputs": [
        {
          "internalType": "uint256[]",
          "name": "",
          "type": "uint256[]"
        }
      ],
      "stateMutability": "view",
      "type": "function"
    },
    {
      "inputs": [
        {
          "internalType": "address",
          "name": "voter",
          "type": "address"
        }
      ],
      "name": "getVoterTokenBalance",
      "outputs": [
        {
          "internalType": "uint256",
          "name": "",
          "type": "uint256"
        }
      ],
      "stateMutability": "view",
      "type": "function"
    },
    {
      "inputs": [],
      "name": "myToken",
      "outputs": [
        {
          "internalType": "contract MyToken",
          "name": "",
          "type": "address"
        }
      ],
      "stateMutability": "view",
      "type": "function"
    },
    {
      "inputs": [],
      "name": "nextStage",
      "outputs": [],
      "stateMutability": "nonpayable",
      "type": "function"
    },
    {
      "inputs": [],
      "name": "owner",
      "outputs": [
        {
          "internalType": "address",
          "name": "",
          "type": "address"
        }
      ],
      "stateMutability": "view",
      "type": "function"
    },
    {
      "inputs": [
        {
          "internalType": "uint256",
          "name": "",
          "type": "uint256"
        }
      ],
      "name": "registeredVoters",
      "outputs": [
        {
          "internalType": "address",
          "name": "",
          "type": "address"
        }
      ],
      "stateMutability": "view",
      "type": "function"
    },
    {
      "inputs": [],
      "name": "restartElections",
      "outputs": [],
      "stateMutability": "nonpayable",
      "type": "function"
    },
    {
      "inputs": [
        {
          "internalType": "address",
          "name": "candidateToken",
          "type": "address"
        }
      ],
      "name": "setCandidateTokenContract",
      "outputs": [],
      "stateMutability": "nonpayable",
      "type": "function"
    },
    {
      "inputs": [
        {
          "internalType": "uint256",
          "name": "",
          "type": "uint256"
        }
      ],
      "name": "stageByElection",
      "outputs": [
        {
          "internalType": "enum Election.Stage",
          "name": "",
          "type": "uint8"
        }
      ],
      "stateMutability": "view",
      "type": "function"
    },
    {
      "inputs": [
        {
          "internalType": "enum Election.Stage",
          "name": "",
          "type": "uint8"
        }
      ],
      "name": "stageCompleted",
      "outputs": [
        {
          "internalType": "bool",
          "name": "",
          "type": "bool"
        }
      ],
      "stateMutability": "view",
      "type": "function"
    },
    {
      "inputs": [
        {
          "internalType": "address",
          "name": "newOwner",
          "type": "address"
        }
      ],
      "name": "transferOwnership",
      "outputs": [],
      "stateMutability": "nonpayable",
      "type": "function"
    },
    {
      "inputs": [
        {
          "internalType": "address",
          "name": "candidate",
          "type": "address"
        }
      ],
      "name": "vote",
      "outputs": [],
      "stateMutability": "nonpayable",
      "type": "function"
    },
    {
      "inputs": [
        {
          "internalType": "address",
          "name": "",
          "type": "address"
        },
        {
          "internalType": "address",
          "name": "",
          "type": "address"
        }
      ],
      "name": "voterTokens",
      "outputs": [
        {
          "internalType": "uint256",
          "name": "",
          "type": "uint256"
        }
      ],
      "stateMutability": "view",
      "type": "function"
    },
    {
      "inputs": [
        {
          "internalType": "address",
          "name": "",
          "type": "address"
        }
      ],
      "name": "voters",
      "outputs": [
        {
          "internalType": "bool",
          "name": "isRegistered",
          "type": "bool"
        },
        {
          "internalType": "bool",
          "name": "hasVoted",
          "type": "bool"
        }
      ],
      "stateMutability": "view",
      "type": "function"
    }
  ],
  "bytecode": "0x60806040523480156200001157600080fd5b5060405162003ae638038062003ae68339818101604052810190620000379190620005b2565b33600060016101000a81548173ffffffffffffffffffffffffffffffffffffffff021916908373ffffffffffffffffffffffffffffffffffffffff160217905550600160038190555060008060006101000a81548160ff02191690836004811115620000cc577f4e487b7100000000000000000000000000000000000000000000000000000000600052602160045260246000fd5b021790555060008054906101000a900460ff1660046000600354815260200190815260200160002060006101000a81548160ff021916908360048111156200013d577f4e487b7100000000000000000000000000000000000000000000000000000000600052602160045260246000fd5b02179055506000600560008060009054906101000a900460ff16600481111562000190577f4e487b7100000000000000000000000000000000000000000000000000000000600052602160045260246000fd5b6004811115620001c9577f4e487b7100000000000000000000000000000000000000000000000000000000600052602160045260246000fd5b815260200190815260200160002060006101000a81548160ff02191690831515021790555060005b8151811015620002ff576200024d82828151811062000239577f4e487b7100000000000000000000000000000000000000000000000000000000600052603260045260246000fd5b60200260200101516200030760201b60201c565b6001600760008484815181106200028d577f4e487b7100000000000000000000000000000000000000000000000000000000600052603260045260246000fd5b602002602001015173ffffffffffffffffffffffffffffffffffffffff1673ffffffffffffffffffffffffffffffffffffffff16815260200190815260200160002060000160006101000a81548160ff0219169083151502179055508080620002f6906200070d565b915050620001f1565b5050620007d3565b600760008273ffffffffffffffffffffffffffffffffffffffff1673ffffffffffffffffffffffffffffffffffffffff16815260200190815260200160002060000160009054906101000a900460ff16156200039a576040517f08c379a0000000000000000000000000000000000000000000000000000000008152600401620003919062000639565b60405180910390fd5b6001600760008373ffffffffffffffffffffffffffffffffffffffff1673ffffffffffffffffffffffffffffffffffffffff16815260200190815260200160002060000160006101000a81548160ff0219169083151502179055506000600760008373ffffffffffffffffffffffffffffffffffffffff1673ffffffffffffffffffffffffffffffffffffffff16815260200190815260200160002060000160016101000a81548160ff0219169083151502179055506008819080600181540180825580915050600190039060005260206000200160009091909190916101000a81548173ffffffffffffffffffffffffffffffffffffffff021916908373ffffffffffffffffffffffffffffffffffffffff1602179055508073ffffffffffffffffffffffffffffffffffffffff167fb6be2187d059cc2a55fe29e0e503b566e1e0f8c8780096e185429350acffd3dd60405160405180910390a250565b6000620005106200050a846200068f565b6200065b565b905080838252602082019050828560208602820111156200053057600080fd5b60005b858110156200056457816200054988826200056e565b84526020840193506020830192505060018101905062000533565b5050509392505050565b6000815190506200057f81620007b9565b92915050565b600082601f8301126200059757600080fd5b8151620005a9848260208601620004f9565b91505092915050565b600060208284031215620005c557600080fd5b600082015167ffffffffffffffff811115620005e057600080fd5b620005ee8482850162000585565b91505092915050565b600062000606601b83620006be565b91507f566f74657220697320616c7265616479207265676973746572656400000000006000830152602082019050919050565b600060208201905081810360008301526200065481620005f7565b9050919050565b6000604051905081810181811067ffffffffffffffff821117156200068557620006846200078a565b5b8060405250919050565b600067ffffffffffffffff821115620006ad57620006ac6200078a565b5b602082029050602081019050919050565b600082825260208201905092915050565b6000620006dc82620006e3565b9050919050565b600073ffffffffffffffffffffffffffffffffffffffff82169050919050565b6000819050919050565b60006200071a8262000703565b91507fffffffffffffffffffffffffffffffffffffffffffffffffffffffffffffffff82141562000750576200074f6200075b565b5b600182019050919050565b7f4e487b7100000000000000000000000000000000000000000000000000000000600052601160045260246000fd5b7f4e487b7100000000000000000000000000000000000000000000000000000000600052604160045260246000fd5b620007c481620006cf565b8114620007d057600080fd5b50565b61330380620007e36000396000f3fe608060405234801561001057600080fd5b50600436106101725760003560e01c80636dd7d8ea116100de578063b8fcf93711610097578063ea1b506111610071578063ea1b506114610450578063ee3743ab14610480578063f2fde38b1461048a578063f30687e9146104a657610172565b8063b8fcf937146103f8578063ca58551914610416578063dbcbaeaf1461044657610172565b80636dd7d8ea146103215780638da5cb5b1461033d578063a3ec138d1461035b578063a91081a11461038c578063aabe2fe3146103aa578063b8461693146103c857610172565b806325c7993a1161013057806325c7993a1461024d5780632c64ae471461027d5780632d8cd096146102ad5780633477ee2e146102b75780635bf5d54c146102e75780636a9b0edc1461030557610172565b8062b170fd14610177578063051364d4146101a7578063092a5cce146101c55780631fc3e3f9146101cf578063241b644f146101ed5780632436e06b1461021d575b600080fd5b610191600480360381019061018c9190612853565b6104c2565b60405161019e919061308e565b60405180910390f35b6101af6104da565b6040516101bc919061308e565b60405180910390f35b6101cd6104e0565b005b6101d76105ab565b6040516101e49190612e92565b60405180910390f35b6102076004803603810190610202919061287c565b610739565b604051610214919061308e565b60405180910390f35b6102376004803603810190610232919061290a565b61075e565b6040516102449190612e09565b60405180910390f35b61026760048036038101906102629190612853565b61079d565b6040516102749190612eb4565b60405180910390f35b61029760048036038101906102929190612853565b6107c8565b6040516102a49190612e09565b60405180910390f35b6102b56107fb565b005b6102d160048036038101906102cc919061290a565b610c08565b6040516102de9190612e09565b60405180910390f35b6102ef610c47565b6040516102fc9190612f13565b60405180910390f35b61031f600480360381019061031a9190612853565b610c58565b005b61033b60048036038101906103369190612853565b610d68565b005b61034561125c565b6040516103529190612e09565b60405180910390f35b61037560048036038101906103709190612853565b611282565b604051610383929190612ecf565b60405180910390f35b6103946112c0565b6040516103a1919061308e565b60405180910390f35b6103b26112cd565b6040516103bf9190612e09565b60405180910390f35b6103e260048036038101906103dd9190612853565b6112f3565b6040516103ef919061308e565b60405180910390f35b6104006113a7565b60405161040d9190612ef8565b60405180910390f35b610430600480360381019061042b91906128e1565b6113cd565b60405161043d9190612eb4565b60405180910390f35b61044e6113ed565b005b61046a6004803603810190610465919061290a565b6117d8565b6040516104779190612f13565b60405180910390f35b6104886117f8565b005b6104a4600480360381019061049f9190612853565b611e7b565b005b6104c060048036038101906104bb9190612853565b611fbf565b005b600b6020528060005260406000206000915090505481565b60035481565b600060019054906101000a900473ffffffffffffffffffffffffffffffffffffffff1673ffffffffffffffffffffffffffffffffffffffff163373ffffffffffffffffffffffffffffffffffffffff1614610570576040517f08c379a000000000000000000000000000000000000000000000000000000000815260040161056790612f2e565b60405180910390fd5b600060019054906101000a900473ffffffffffffffffffffffffffffffffffffffff1673ffffffffffffffffffffffffffffffffffffffff16ff5b60606000600a8054905067ffffffffffffffff8111156105f4577f4e487b7100000000000000000000000000000000000000000000000000000000600052604160045260246000fd5b6040519080825280602002602001820160405280156106225781602001602082028036833780820191505090505b50905060005b600a8054905081101561073157600b6000600a8381548110610673577f4e487b7100000000000000000000000000000000000000000000000000000000600052603260045260246000fd5b9060005260206000200160009054906101000a900473ffffffffffffffffffffffffffffffffffffffff1673ffffffffffffffffffffffffffffffffffffffff1673ffffffffffffffffffffffffffffffffffffffff16815260200190815260200160002054828281518110610712577f4e487b7100000000000000000000000000000000000000000000000000000000600052603260045260246000fd5b6020026020010181815250508080610729906131bd565b915050610628565b508091505090565b600c602052816000526040600020602052806000526040600020600091509150505481565b6008818154811061076e57600080fd5b906000526020600020016000915054906101000a900473ffffffffffffffffffffffffffffffffffffffff1681565b60096020528060005260406000206000915090508060000160009054906101000a900460ff16905081565b60066020528060005260406000206000915054906101000a900473ffffffffffffffffffffffffffffffffffffffff1681565b600060019054906101000a900473ffffffffffffffffffffffffffffffffffffffff1673ffffffffffffffffffffffffffffffffffffffff163373ffffffffffffffffffffffffffffffffffffffff161461088b576040517f08c379a000000000000000000000000000000000000000000000000000000000815260040161088290612f2e565b60405180910390fd5b60038060048111156108c6577f4e487b7100000000000000000000000000000000000000000000000000000000600052602160045260246000fd5b60008054906101000a900460ff16600481111561090c577f4e487b7100000000000000000000000000000000000000000000000000000000600052602160045260246000fd5b1461094c576040517f08c379a00000000000000000000000000000000000000000000000000000000081526004016109439061306e565b60405180910390fd5b60046000806101000a81548160ff02191690836004811115610997577f4e487b7100000000000000000000000000000000000000000000000000000000600052602160045260246000fd5b021790555060008080600090505b600a80549050811015610b7e5782600b6000600a84815481106109f1577f4e487b7100000000000000000000000000000000000000000000000000000000600052603260045260246000fd5b9060005260206000200160009054906101000a900473ffffffffffffffffffffffffffffffffffffffff1673ffffffffffffffffffffffffffffffffffffffff1673ffffffffffffffffffffffffffffffffffffffff168152602001908152602001600020541115610b6b57600b6000600a8381548110610a9b577f4e487b7100000000000000000000000000000000000000000000000000000000600052603260045260246000fd5b9060005260206000200160009054906101000a900473ffffffffffffffffffffffffffffffffffffffff1673ffffffffffffffffffffffffffffffffffffffff1673ffffffffffffffffffffffffffffffffffffffff168152602001908152602001600020549250600a8181548110610b3d577f4e487b7100000000000000000000000000000000000000000000000000000000600052603260045260246000fd5b9060005260206000200160009054906101000a900473ffffffffffffffffffffffffffffffffffffffff1691505b8080610b76906131bd565b9150506109a5565b5080600160006101000a81548173ffffffffffffffffffffffffffffffffffffffff021916908373ffffffffffffffffffffffffffffffffffffffff1602179055508073ffffffffffffffffffffffffffffffffffffffff167f7ca8a224a5c666ded68ae58d3889480f723238757e1da0fc8b7371dd5bd4466660405160405180910390a2505050565b600a8181548110610c1857600080fd5b906000526020600020016000915054906101000a900473ffffffffffffffffffffffffffffffffffffffff1681565b60008054906101000a900460ff1681565b600960003373ffffffffffffffffffffffffffffffffffffffff1673ffffffffffffffffffffffffffffffffffffffff16815260200190815260200160002060000160009054906101000a900460ff16610ce7576040517f08c379a0000000000000000000000000000000000000000000000000000000008152600401610cde90612f6e565b60405180910390fd5b80600660003373ffffffffffffffffffffffffffffffffffffffff1673ffffffffffffffffffffffffffffffffffffffff16815260200190815260200160002060006101000a81548173ffffffffffffffffffffffffffffffffffffffff021916908373ffffffffffffffffffffffffffffffffffffffff16021790555050565b600760003373ffffffffffffffffffffffffffffffffffffffff1673ffffffffffffffffffffffffffffffffffffffff16815260200190815260200160002060000160009054906101000a900460ff16610df7576040517f08c379a0000000000000000000000000000000000000000000000000000000008152600401610dee9061300e565b60405180910390fd5b6002806004811115610e32577f4e487b7100000000000000000000000000000000000000000000000000000000600052602160045260246000fd5b60008054906101000a900460ff166004811115610e78577f4e487b7100000000000000000000000000000000000000000000000000000000600052602160045260246000fd5b14610eb8576040517f08c379a0000000000000000000000000000000000000000000000000000000008152600401610eaf9061306e565b60405180910390fd5b600960008373ffffffffffffffffffffffffffffffffffffffff1673ffffffffffffffffffffffffffffffffffffffff16815260200190815260200160002060000160009054906101000a900460ff16610f47576040517f08c379a0000000000000000000000000000000000000000000000000000000008152600401610f3e9061302e565b60405180910390fd5b600760003373ffffffffffffffffffffffffffffffffffffffff1673ffffffffffffffffffffffffffffffffffffffff16815260200190815260200160002060000160019054906101000a900460ff1615610fd7576040517f08c379a0000000000000000000000000000000000000000000000000000000008152600401610fce9061304e565b60405180910390fd5b6000600c60003373ffffffffffffffffffffffffffffffffffffffff1673ffffffffffffffffffffffffffffffffffffffff16815260200190815260200160002060008473ffffffffffffffffffffffffffffffffffffffff1673ffffffffffffffffffffffffffffffffffffffff1681526020019081526020016000205490506000811161109b576040517f08c379a000000000000000000000000000000000000000000000000000000000815260040161109290612fce565b60405180910390fd5b600260009054906101000a900473ffffffffffffffffffffffffffffffffffffffff1673ffffffffffffffffffffffffffffffffffffffff166323b872dd3330846040518463ffffffff1660e01b81526004016110fa93929190612e24565b602060405180830381600087803b15801561111457600080fd5b505af1158015611128573d6000803e3d6000fd5b505050506040513d601f19601f8201168201806040525081019061114c91906128b8565b50600b60008473ffffffffffffffffffffffffffffffffffffffff1673ffffffffffffffffffffffffffffffffffffffff168152602001908152602001600020600081548092919061119d906131bd565b91905055506001600760003373ffffffffffffffffffffffffffffffffffffffff1673ffffffffffffffffffffffffffffffffffffffff16815260200190815260200160002060000160016101000a81548160ff0219169083151502179055508273ffffffffffffffffffffffffffffffffffffffff163373ffffffffffffffffffffffffffffffffffffffff167fce0c7a2a940807f7dc2ce7a615c2532e915e6c0ac9a08bc4ed9d515a710a53e260405160405180910390a3505050565b600060019054906101000a900473ffffffffffffffffffffffffffffffffffffffff1681565b60076020528060005260406000206000915090508060000160009054906101000a900460ff16908060000160019054906101000a900460ff16905082565b6000600880549050905090565b600160009054906101000a900473ffffffffffffffffffffffffffffffffffffffff1681565b6000600260009054906101000a900473ffffffffffffffffffffffffffffffffffffffff1673ffffffffffffffffffffffffffffffffffffffff166370a08231836040518263ffffffff1660e01b81526004016113509190612e09565b60206040518083038186803b15801561136857600080fd5b505afa15801561137c573d6000803e3d6000fd5b505050506040513d601f19601f820116820180604052508101906113a09190612933565b9050919050565b600260009054906101000a900473ffffffffffffffffffffffffffffffffffffffff1681565b60056020528060005260406000206000915054906101000a900460ff1681565b600060019054906101000a900473ffffffffffffffffffffffffffffffffffffffff1673ffffffffffffffffffffffffffffffffffffffff163373ffffffffffffffffffffffffffffffffffffffff161461147d576040517f08c379a000000000000000000000000000000000000000000000000000000000815260040161147490612f2e565b60405180910390fd5b60036000815480929190611490906131bd565b919050555060008060006101000a81548160ff021916908360048111156114e0577f4e487b7100000000000000000000000000000000000000000000000000000000600052602160045260246000fd5b021790555060005b600a8054905081101561166d576000600a8281548110611531577f4e487b7100000000000000000000000000000000000000000000000000000000600052603260045260246000fd5b9060005260206000200160009054906101000a900473ffffffffffffffffffffffffffffffffffffffff169050600960008273ffffffffffffffffffffffffffffffffffffffff1673ffffffffffffffffffffffffffffffffffffffff168152602001908152602001600020600080820160006101000a81549060ff02191690555050600b60008273ffffffffffffffffffffffffffffffffffffffff1673ffffffffffffffffffffffffffffffffffffffff16815260200190815260200160002060009055600660008273ffffffffffffffffffffffffffffffffffffffff1673ffffffffffffffffffffffffffffffffffffffff16815260200190815260200160002060006101000a81549073ffffffffffffffffffffffffffffffffffffffff0219169055508080611665906131bd565b9150506114e8565b50600067ffffffffffffffff8111156116af577f4e487b7100000000000000000000000000000000000000000000000000000000600052604160045260246000fd5b6040519080825280602002602001820160405280156116dd5781602001602082028036833780820191505090505b50600a90805190602001906116f3929190612743565b5060008054906101000a900460ff16600481111561173a577f4e487b7100000000000000000000000000000000000000000000000000000000600052602160045260246000fd5b7f4d832d85e23664f279fabeca32fb628a96dcc0fa89667afea69de42ae3bbdf5760405160405180910390a260008054906101000a900460ff1660046000600354815260200190815260200160002060006101000a81548160ff021916908360048111156117d1577f4e487b7100000000000000000000000000000000000000000000000000000000600052602160045260246000fd5b0217905550565b60046020528060005260406000206000915054906101000a900460ff1681565b600060019054906101000a900473ffffffffffffffffffffffffffffffffffffffff1673ffffffffffffffffffffffffffffffffffffffff163373ffffffffffffffffffffffffffffffffffffffff1614611888576040517f08c379a000000000000000000000000000000000000000000000000000000000815260040161187f90612f2e565b60405180910390fd5b6004808111156118c1577f4e487b7100000000000000000000000000000000000000000000000000000000600052602160045260246000fd5b60008054906101000a900460ff166004811115611907577f4e487b7100000000000000000000000000000000000000000000000000000000600052602160045260246000fd5b1415611948576040517f08c379a000000000000000000000000000000000000000000000000000000000815260040161193f90612f8e565b60405180910390fd5b6001600560008060009054906101000a900460ff166004811115611995577f4e487b7100000000000000000000000000000000000000000000000000000000600052602160045260246000fd5b60048111156119cd577f4e487b7100000000000000000000000000000000000000000000000000000000600052602160045260246000fd5b815260200190815260200160002060006101000a81548160ff02191690831515021790555060006004811115611a2c577f4e487b7100000000000000000000000000000000000000000000000000000000600052602160045260246000fd5b60008054906101000a900460ff166004811115611a72577f4e487b7100000000000000000000000000000000000000000000000000000000600052602160045260246000fd5b1415611acd5760016000806101000a81548160ff02191690836004811115611ac3577f4e487b7100000000000000000000000000000000000000000000000000000000600052602160045260246000fd5b0217905550611d5d565b60016004811115611b07577f4e487b7100000000000000000000000000000000000000000000000000000000600052602160045260246000fd5b60008054906101000a900460ff166004811115611b4d577f4e487b7100000000000000000000000000000000000000000000000000000000600052602160045260246000fd5b1415611ba85760026000806101000a81548160ff02191690836004811115611b9e577f4e487b7100000000000000000000000000000000000000000000000000000000600052602160045260246000fd5b0217905550611d5c565b60026004811115611be2577f4e487b7100000000000000000000000000000000000000000000000000000000600052602160045260246000fd5b60008054906101000a900460ff166004811115611c28577f4e487b7100000000000000000000000000000000000000000000000000000000600052602160045260246000fd5b1415611c835760036000806101000a81548160ff02191690836004811115611c79577f4e487b7100000000000000000000000000000000000000000000000000000000600052602160045260246000fd5b0217905550611d5b565b60036004811115611cbd577f4e487b7100000000000000000000000000000000000000000000000000000000600052602160045260246000fd5b60008054906101000a900460ff166004811115611d03577f4e487b7100000000000000000000000000000000000000000000000000000000600052602160045260246000fd5b1415611d5a5760046000806101000a81548160ff02191690836004811115611d54577f4e487b7100000000000000000000000000000000000000000000000000000000600052602160045260246000fd5b02179055505b5b5b5b6000600560008060009054906101000a900460ff166004811115611daa577f4e487b7100000000000000000000000000000000000000000000000000000000600052602160045260246000fd5b6004811115611de2577f4e487b7100000000000000000000000000000000000000000000000000000000600052602160045260246000fd5b815260200190815260200160002060006101000a81548160ff02191690831515021790555060008054906101000a900460ff166004811115611e4d577f4e487b7100000000000000000000000000000000000000000000000000000000600052602160045260246000fd5b7f4d832d85e23664f279fabeca32fb628a96dcc0fa89667afea69de42ae3bbdf5760405160405180910390a2565b600060019054906101000a900473ffffffffffffffffffffffffffffffffffffffff1673ffffffffffffffffffffffffffffffffffffffff163373ffffffffffffffffffffffffffffffffffffffff1614611f0b576040517f08c379a0000000000000000000000000000000000000000000000000000000008152600401611f0290612f2e565b60405180910390fd5b600073ffffffffffffffffffffffffffffffffffffffff168173ffffffffffffffffffffffffffffffffffffffff161415611f7b576040517f08c379a0000000000000000000000000000000000000000000000000000000008152600401611f7290612f4e565b60405180910390fd5b80600060016101000a81548173ffffffffffffffffffffffffffffffffffffffff021916908373ffffffffffffffffffffffffffffffffffffffff16021790555050565b600760003373ffffffffffffffffffffffffffffffffffffffff1673ffffffffffffffffffffffffffffffffffffffff16815260200190815260200160002060000160009054906101000a900460ff1661204e576040517f08c379a00000000000000000000000000000000000000000000000000000000081526004016120459061300e565b60405180910390fd5b6001806004811115612089577f4e487b7100000000000000000000000000000000000000000000000000000000600052602160045260246000fd5b60008054906101000a900460ff1660048111156120cf577f4e487b7100000000000000000000000000000000000000000000000000000000600052602160045260246000fd5b1461210f576040517f08c379a00000000000000000000000000000000000000000000000000000000081526004016121069061306e565b60405180910390fd5b600960003373ffffffffffffffffffffffffffffffffffffffff1673ffffffffffffffffffffffffffffffffffffffff16815260200190815260200160002060000160009054906101000a900460ff161561219f576040517f08c379a000000000000000000000000000000000000000000000000000000000815260040161219690612fae565b60405180910390fd5b600060088054905090506121b3838261237c565b6001600960003373ffffffffffffffffffffffffffffffffffffffff1673ffffffffffffffffffffffffffffffffffffffff16815260200190815260200160002060000160006101000a81548160ff021916908315150217905550600a339080600181540180825580915050600190039060005260206000200160009091909190916101000a81548173ffffffffffffffffffffffffffffffffffffffff021916908373ffffffffffffffffffffffffffffffffffffffff1602179055506000600b60003373ffffffffffffffffffffffffffffffffffffffff1673ffffffffffffffffffffffffffffffffffffffff1681526020019081526020016000208190555082600660003373ffffffffffffffffffffffffffffffffffffffff1673ffffffffffffffffffffffffffffffffffffffff16815260200190815260200160002060006101000a81548173ffffffffffffffffffffffffffffffffffffffff021916908373ffffffffffffffffffffffffffffffffffffffff1602179055503373ffffffffffffffffffffffffffffffffffffffff167f9545958acd302b513e02151c801fa2f3ff0c760bbba15dae85a87737e5c1541760405160405180910390a2505050565b600081116123bf576040517f08c379a00000000000000000000000000000000000000000000000000000000081526004016123b690612fee565b60405180910390fd5b60005b60088054905081101561273e576000600167ffffffffffffffff811115612412577f4e487b7100000000000000000000000000000000000000000000000000000000600052604160045260246000fd5b6040519080825280602002602001820160405280156124405781602001602082028036833780820191505090505b5090506008828154811061247d577f4e487b7100000000000000000000000000000000000000000000000000000000600052603260045260246000fd5b9060005260206000200160009054906101000a900473ffffffffffffffffffffffffffffffffffffffff16816000815181106124e2577f4e487b7100000000000000000000000000000000000000000000000000000000600052603260045260246000fd5b602002602001019073ffffffffffffffffffffffffffffffffffffffff16908173ffffffffffffffffffffffffffffffffffffffff16815250506000600167ffffffffffffffff81111561255f577f4e487b7100000000000000000000000000000000000000000000000000000000600052604160045260246000fd5b60405190808252806020026020018201604052801561258d5781602001602082028036833780820191505090505b50905083816000815181106125cb577f4e487b7100000000000000000000000000000000000000000000000000000000600052603260045260246000fd5b6020026020010181815250508473ffffffffffffffffffffffffffffffffffffffff166322b79c1c83836040518363ffffffff1660e01b8152600401612612929190612e5b565b600060405180830381600087803b15801561262c57600080fd5b505af1158015612640573d6000803e3d6000fd5b5050505083600c600060088681548110612683577f4e487b7100000000000000000000000000000000000000000000000000000000600052603260045260246000fd5b9060005260206000200160009054906101000a900473ffffffffffffffffffffffffffffffffffffffff1673ffffffffffffffffffffffffffffffffffffffff1673ffffffffffffffffffffffffffffffffffffffff16815260200190815260200160002060003373ffffffffffffffffffffffffffffffffffffffff1673ffffffffffffffffffffffffffffffffffffffff1681526020019081526020016000208190555050508080612736906131bd565b9150506123c2565b505050565b8280548282559060005260206000209081019282156127bc579160200282015b828111156127bb5782518260006101000a81548173ffffffffffffffffffffffffffffffffffffffff021916908373ffffffffffffffffffffffffffffffffffffffff16021790555091602001919060010190612763565b5b5090506127c991906127cd565b5090565b5b808211156127e65760008160009055506001016127ce565b5090565b6000813590506127f981613278565b92915050565b60008151905061280e8161328f565b92915050565b600081359050612823816132a6565b92915050565b600081359050612838816132b6565b92915050565b60008151905061284d816132b6565b92915050565b60006020828403121561286557600080fd5b6000612873848285016127ea565b91505092915050565b6000806040838503121561288f57600080fd5b600061289d858286016127ea565b92505060206128ae858286016127ea565b9150509250929050565b6000602082840312156128ca57600080fd5b60006128d8848285016127ff565b91505092915050565b6000602082840312156128f357600080fd5b600061290184828501612814565b91505092915050565b60006020828403121561291c57600080fd5b600061292a84828501612829565b91505092915050565b60006020828403121561294557600080fd5b60006129538482850161283e565b91505092915050565b6000612968838361298c565b60208301905092915050565b60006129808383612deb565b60208301905092915050565b6129958161312c565b82525050565b6129a48161312c565b82525050565b60006129b5826130c9565b6129bf81856130f9565b93506129ca836130a9565b8060005b838110156129fb5781516129e2888261295c565b97506129ed836130df565b9250506001810190506129ce565b5085935050505092915050565b6000612a13826130d4565b612a1d818561310a565b9350612a28836130b9565b8060005b83811015612a59578151612a408882612974565b9750612a4b836130ec565b925050600181019050612a2c565b5085935050505092915050565b612a6f8161313e565b82525050565b612a7e81613187565b82525050565b612a8d816131ab565b82525050565b6000612aa060258361311b565b91507f4f6e6c7920746865206f776e65722063616e2063616c6c20746869732066756e60008301527f6374696f6e0000000000000000000000000000000000000000000000000000006020830152604082019050919050565b6000612b06600f8361311b565b91507f496e76616c6964206164647265737300000000000000000000000000000000006000830152602082019050919050565b6000612b4660178361311b565b91507f596f7520617265206e6f7420612063616e6469646174650000000000000000006000830152602082019050919050565b6000612b86601f8361311b565b91507f456c656374696f6e732061726520616c726561647920636f6d706c65746564006000830152602082019050919050565b6000612bc6601b8361311b565b91507f596f752061726520616c726561647920612063616e64696461746500000000006000830152602082019050919050565b6000612c0660378361311b565b91507f596f7520646f6e2774206861766520656e6f75676820746f6b656e7320746f2060008301527f766f746520666f7220746869732063616e6469646174650000000000000000006020830152604082019050919050565b6000612c6c602b8361311b565b91507f546f6b656e73207065722063616e646964617465206d7573742062652067726560008301527f61746572207468616e20300000000000000000000000000000000000000000006020830152604082019050919050565b6000612cd2601e8361311b565b91507f596f7520617265206e6f742061207265676973746572656420766f74657200006000830152602082019050919050565b6000612d1260198361311b565b91507f496e76616c69642063616e6469646174652061646472657373000000000000006000830152602082019050919050565b6000612d5260168361311b565b91507f596f75206861766520616c726561647920766f746564000000000000000000006000830152602082019050919050565b6000612d9260278361311b565b91507f46756e6374696f6e2063616e6e6f742062652063616c6c65642061742074686960008301527f73207374616765000000000000000000000000000000000000000000000000006020830152604082019050919050565b612df48161317d565b82525050565b612e038161317d565b82525050565b6000602082019050612e1e600083018461299b565b92915050565b6000606082019050612e39600083018661299b565b612e46602083018561299b565b612e536040830184612dfa565b949350505050565b60006040820190508181036000830152612e7581856129aa565b90508181036020830152612e898184612a08565b90509392505050565b60006020820190508181036000830152612eac8184612a08565b905092915050565b6000602082019050612ec96000830184612a66565b92915050565b6000604082019050612ee46000830185612a66565b612ef16020830184612a66565b9392505050565b6000602082019050612f0d6000830184612a75565b92915050565b6000602082019050612f286000830184612a84565b92915050565b60006020820190508181036000830152612f4781612a93565b9050919050565b60006020820190508181036000830152612f6781612af9565b9050919050565b60006020820190508181036000830152612f8781612b39565b9050919050565b60006020820190508181036000830152612fa781612b79565b9050919050565b60006020820190508181036000830152612fc781612bb9565b9050919050565b60006020820190508181036000830152612fe781612bf9565b9050919050565b6000602082019050818103600083015261300781612c5f565b9050919050565b6000602082019050818103600083015261302781612cc5565b9050919050565b6000602082019050818103600083015261304781612d05565b9050919050565b6000602082019050818103600083015261306781612d45565b9050919050565b6000602082019050818103600083015261308781612d85565b9050919050565b60006020820190506130a36000830184612dfa565b92915050565b6000819050602082019050919050565b6000819050602082019050919050565b600081519050919050565b600081519050919050565b6000602082019050919050565b6000602082019050919050565b600082825260208201905092915050565b600082825260208201905092915050565b600082825260208201905092915050565b60006131378261315d565b9050919050565b60008115159050919050565b600081905061315882613264565b919050565b600073ffffffffffffffffffffffffffffffffffffffff82169050919050565b6000819050919050565b600061319282613199565b9050919050565b60006131a48261315d565b9050919050565b60006131b68261314a565b9050919050565b60006131c88261317d565b91507fffffffffffffffffffffffffffffffffffffffffffffffffffffffffffffffff8214156131fb576131fa613206565b5b600182019050919050565b7f4e487b7100000000000000000000000000000000000000000000000000000000600052601160045260246000fd5b7f4e487b7100000000000000000000000000000000000000000000000000000000600052602160045260246000fd5b6005811061327557613274613235565b5b50565b6132818161312c565b811461328c57600080fd5b50565b6132988161313e565b81146132a357600080fd5b50565b600581106132b357600080fd5b50565b6132bf8161317d565b81146132ca57600080fd5b5056fea2646970667358221220221b4fda9fa1c4fe4cb26e471a20b812e16cad9aaa7e5e781dcdba7143ccacb764736f6c63430008000033",
  "linkReferences": {},
  "deployedLinkReferences": {}
}