{
  "_format": "hh-sol-artifact-1",
  "contractName": "MyToken",
  "sourceName": "contracts/MyToken.sol",
  "abi": [
    {
      "inputs": [
        {
          "internalType": "uint256",
          "name": "initialSupply",
          "type": "uint256"
        }
      ],
      "stateMutability": "nonpayable",
      "type": "constructor"
    },
    {
      "anonymous": false,
      "inputs": [
        {
          "indexed": true,
          "internalType": "address",
          "name": "owner",
          "type": "address"
        },
        {
          "indexed": true,
          "internalType": "address",
          "name": "spender",
          "type": "address"
        },
        {
          "indexed": false,
          "internalType": "uint256",
          "name": "value",
          "type": "uint256"
        }
      ],
      "name": "Approval",
      "type": "event"
    },
    {
      "anonymous": false,
      "inputs": [
        {
          "indexed": true,
          "internalType": "address",
          "name": "from",
          "type": "address"
        },
        {
          "indexed": true,
          "internalType": "address",
          "name": "to",
          "type": "address"
        },
        {
          "indexed": false,
          "internalType": "uint256",
          "name": "value",
          "type": "uint256"
        }
      ],
      "name": "Transfer",
      "type": "event"
    },
    {
      "inputs": [
        {
          "internalType": "address",
          "name": "owner",
          "type": "address"
        },
        {
          "internalType": "address",
          "name": "spender",
          "type": "address"
        }
      ],
      "name": "allowance",
      "outputs": [
        {
          "internalType": "uint256",
          "name": "",
          "type": "uint256"
        }
      ],
      "stateMutability": "view",
      "type": "function"
    },
    {
      "inputs": [
        {
          "internalType": "address",
          "name": "spender",
          "type": "address"
        },
        {
          "internalType": "uint256",
          "name": "amount",
          "type": "uint256"
        }
      ],
      "name": "approve",
      "outputs": [
        {
          "internalType": "bool",
          "name": "",
          "type": "bool"
        }
      ],
      "stateMutability": "nonpayable",
      "type": "function"
    },
    {
      "inputs": [
        {
          "internalType": "address",
          "name": "account",
          "type": "address"
        }
      ],
      "name": "balanceOf",
      "outputs": [
        {
          "internalType": "uint256",
          "name": "",
          "type": "uint256"
        }
      ],
      "stateMutability": "view",
      "type": "function"
    },
    {
      "inputs": [],
      "name": "decimals",
      "outputs": [
        {
          "internalType": "uint8",
          "name": "",
          "type": "uint8"
        }
      ],
      "stateMutability": "view",
      "type": "function"
    },
    {
      "inputs": [
        {
          "internalType": "address",
          "name": "spender",
          "type": "address"
        },
        {
          "internalType": "uint256",
          "name": "subtractedValue",
          "type": "uint256"
        }
      ],
      "name": "decreaseAllowance",
      "outputs": [
        {
          "internalType": "bool",
          "name": "",
          "type": "bool"
        }
      ],
      "stateMutability": "nonpayable",
      "type": "function"
    },
    {
      "inputs": [
        {
          "internalType": "address",
          "name": "spender",
          "type": "address"
        },
        {
          "internalType": "uint256",
          "name": "addedValue",
          "type": "uint256"
        }
      ],
      "name": "increaseAllowance",
      "outputs": [
        {
          "internalType": "bool",
          "name": "",
          "type": "bool"
        }
      ],
      "stateMutability": "nonpayable",
      "type": "function"
    },
    {
      "inputs": [
        {
          "internalType": "address[]",
          "name": "recipients",
          "type": "address[]"
        },
        {
          "internalType": "uint256[]",
          "name": "amounts",
          "type": "uint256[]"
        }
      ],
      "name": "mintAndSend",
      "outputs": [],
      "stateMutability": "nonpayable",
      "type": "function"
    },
    {
      "inputs": [],
      "name": "name",
      "outputs": [
        {
          "internalType": "string",
          "name": "",
          "type": "string"
        }
      ],
      "stateMutability": "view",
      "type": "function"
    },
    {
      "inputs": [],
      "name": "symbol",
      "outputs": [
        {
          "internalType": "string",
          "name": "",
          "type": "string"
        }
      ],
      "stateMutability": "view",
      "type": "function"
    },
    {
      "inputs": [],
      "name": "totalSupply",
      "outputs": [
        {
          "internalType": "uint256",
          "name": "",
          "type": "uint256"
        }
      ],
      "stateMutability": "view",
      "type": "function"
    },
    {
      "inputs": [
        {
          "internalType": "address",
          "name": "to",
          "type": "address"
        },
        {
          "internalType": "uint256",
          "name": "amount",
          "type": "uint256"
        }
      ],
      "name": "transfer",
      "outputs": [
        {
          "internalType": "bool",
          "name": "",
          "type": "bool"
        }
      ],
      "stateMutability": "nonpayable",
      "type": "function"
    },
    {
      "inputs": [
        {
          "internalType": "address",
          "name": "from",
          "type": "address"
        },
        {
          "internalType": "address",
          "name": "to",
          "type": "address"
        },
        {
          "internalType": "uint256",
          "name": "amount",
          "type": "uint256"
        }
      ],
      "name": "transferFrom",
      "outputs": [
        {
          "internalType": "bool",
          "name": "",
          "type": "bool"
        }
      ],
      "stateMutability": "nonpayable",
      "type": "function"
    },
    {
      "inputs": [
        {
          "internalType": "address",
          "name": "recipient",
          "type": "address"
        },
        {
          "internalType": "uint256",
          "name": "amount",
          "type": "uint256"
        }
      ],
      "name": "transferTokens",
      "outputs": [],
      "stateMutability": "nonpayable",
      "type": "function"
    }
  ],
  "bytecode": "0x60806040523480156200001157600080fd5b50604051620020163803806200201683398181016040528101906200003791906200032f565b6040518060400160405280600b81526020017f43616e64696461746520320000000000000000000000000000000000000000008152506040518060400160405280600481526020017f43414e32000000000000000000000000000000000000000000000000000000008152508160039080519060200190620000bb92919062000268565b508060049080519060200190620000d492919062000268565b505050620000e93382620000f060201b60201c565b5062000513565b600073ffffffffffffffffffffffffffffffffffffffff168273ffffffffffffffffffffffffffffffffffffffff16141562000163576040517f08c379a00000000000000000000000000000000000000000000000000000000081526004016200015a90620003ae565b60405180910390fd5b62000177600083836200025e60201b60201c565b80600260008282546200018b9190620003fe565b92505081905550806000808473ffffffffffffffffffffffffffffffffffffffff1673ffffffffffffffffffffffffffffffffffffffff168152602001908152602001600020600082825401925050819055508173ffffffffffffffffffffffffffffffffffffffff16600073ffffffffffffffffffffffffffffffffffffffff167fddf252ad1be2c89b69c2b068fc378daa952ba7f163c4a11628f55a4df523b3ef836040516200023e9190620003d0565b60405180910390a36200025a600083836200026360201b60201c565b5050565b505050565b505050565b828054620002769062000465565b90600052602060002090601f0160209004810192826200029a5760008555620002e6565b82601f10620002b557805160ff1916838001178555620002e6565b82800160010185558215620002e6579182015b82811115620002e5578251825591602001919060010190620002c8565b5b509050620002f59190620002f9565b5090565b5b8082111562000314576000816000905550600101620002fa565b5090565b6000815190506200032981620004f9565b92915050565b6000602082840312156200034257600080fd5b6000620003528482850162000318565b91505092915050565b60006200036a601f83620003ed565b91507f45524332303a206d696e7420746f20746865207a65726f2061646472657373006000830152602082019050919050565b620003a8816200045b565b82525050565b60006020820190508181036000830152620003c9816200035b565b9050919050565b6000602082019050620003e760008301846200039d565b92915050565b600082825260208201905092915050565b60006200040b826200045b565b915062000418836200045b565b9250827fffffffffffffffffffffffffffffffffffffffffffffffffffffffffffffffff0382111562000450576200044f6200049b565b5b828201905092915050565b6000819050919050565b600060028204905060018216806200047e57607f821691505b60208210811415620004955762000494620004ca565b5b50919050565b7f4e487b7100000000000000000000000000000000000000000000000000000000600052601160045260246000fd5b7f4e487b7100000000000000000000000000000000000000000000000000000000600052602260045260246000fd5b62000504816200045b565b81146200051057600080fd5b50565b611af380620005236000396000f3fe608060405234801561001057600080fd5b50600436106100cf5760003560e01c8063395093511161008c578063a457c2d711610066578063a457c2d714610228578063a9059cbb14610258578063bec3fa1714610288578063dd62ed3e146102a4576100cf565b806339509351146101aa57806370a08231146101da57806395d89b411461020a576100cf565b806306fdde03146100d4578063095ea7b3146100f257806318160ddd1461012257806322b79c1c1461014057806323b872dd1461015c578063313ce5671461018c575b600080fd5b6100dc6102d4565b6040516100e991906115fb565b60405180910390f35b61010c600480360381019061010791906110ae565b610366565b60405161011991906115e0565b60405180910390f35b61012a610389565b60405161013791906117bd565b60405180910390f35b61015a600480360381019061015591906110ea565b610393565b005b6101766004803603810190610171919061105f565b610485565b60405161018391906115e0565b60405180910390f35b6101946104b4565b6040516101a191906117d8565b60405180910390f35b6101c460048036038101906101bf91906110ae565b6104bd565b6040516101d191906115e0565b60405180910390f35b6101f460048036038101906101ef9190610ffa565b6104f4565b60405161020191906117bd565b60405180910390f35b61021261053c565b60405161021f91906115fb565b60405180910390f35b610242600480360381019061023d91906110ae565b6105ce565b60405161024f91906115e0565b60405180910390f35b610272600480360381019061026d91906110ae565b610645565b60405161027f91906115e0565b60405180910390f35b6102a2600480360381019061029d91906110ae565b610668565b005b6102be60048036038101906102b99190611023565b6107e5565b6040516102cb91906117bd565b60405180910390f35b6060600380546102e390611976565b80601f016020809104026020016040519081016040528092919081815260200182805461030f90611976565b801561035c5780601f106103315761010080835404028352916020019161035c565b820191906000526020600020905b81548152906001019060200180831161033f57829003601f168201915b5050505050905090565b60008061037161086c565b905061037e818585610874565b600191505092915050565b6000600254905090565b80518251146103d7576040517f08c379a00000000000000000000000000000000000000000000000000000000081526004016103ce906116dd565b60405180910390fd5b60005b82518110156104805761046d83828151811061041f577f4e487b7100000000000000000000000000000000000000000000000000000000600052603260045260246000fd5b6020026020010151838381518110610460577f4e487b7100000000000000000000000000000000000000000000000000000000600052603260045260246000fd5b6020026020010151610a3f565b8080610478906119a8565b9150506103da565b505050565b60008061049061086c565b905061049d858285610b96565b6104a8858585610c22565b60019150509392505050565b60006012905090565b6000806104c861086c565b90506104e98185856104da85896107e5565b6104e49190611898565b610874565b600191505092915050565b60008060008373ffffffffffffffffffffffffffffffffffffffff1673ffffffffffffffffffffffffffffffffffffffff168152602001908152602001600020549050919050565b60606004805461054b90611976565b80601f016020809104026020016040519081016040528092919081815260200182805461057790611976565b80156105c45780601f10610599576101008083540402835291602001916105c4565b820191906000526020600020905b8154815290600101906020018083116105a757829003601f168201915b5050505050905090565b6000806105d961086c565b905060006105e782866107e5565b90508381101561062c576040517f08c379a00000000000000000000000000000000000000000000000000000000081526004016106239061177d565b60405180910390fd5b6106398286868403610874565b60019250505092915050565b60008061065061086c565b905061065d818585610c22565b600191505092915050565b600073ffffffffffffffffffffffffffffffffffffffff163373ffffffffffffffffffffffffffffffffffffffff1614156106d8576040517f08c379a00000000000000000000000000000000000000000000000000000000081526004016106cf9061173d565b60405180910390fd5b600073ffffffffffffffffffffffffffffffffffffffff168273ffffffffffffffffffffffffffffffffffffffff161415610748576040517f08c379a000000000000000000000000000000000000000000000000000000000815260040161073f906116fd565b60405180910390fd5b6000811161078b576040517f08c379a00000000000000000000000000000000000000000000000000000000081526004016107829061167d565b60405180910390fd5b80610795336104f4565b10156107d6576040517f08c379a00000000000000000000000000000000000000000000000000000000081526004016107cd906116bd565b60405180910390fd5b6107e1338383610c22565b5050565b6000600160008473ffffffffffffffffffffffffffffffffffffffff1673ffffffffffffffffffffffffffffffffffffffff16815260200190815260200160002060008373ffffffffffffffffffffffffffffffffffffffff1673ffffffffffffffffffffffffffffffffffffffff16815260200190815260200160002054905092915050565b600033905090565b600073ffffffffffffffffffffffffffffffffffffffff168373ffffffffffffffffffffffffffffffffffffffff1614156108e4576040517f08c379a00000000000000000000000000000000000000000000000000000000081526004016108db9061175d565b60405180910390fd5b600073ffffffffffffffffffffffffffffffffffffffff168273ffffffffffffffffffffffffffffffffffffffff161415610954576040517f08c379a000000000000000000000000000000000000000000000000000000000815260040161094b9061163d565b60405180910390fd5b80600160008573ffffffffffffffffffffffffffffffffffffffff1673ffffffffffffffffffffffffffffffffffffffff16815260200190815260200160002060008473ffffffffffffffffffffffffffffffffffffffff1673ffffffffffffffffffffffffffffffffffffffff168152602001908152602001600020819055508173ffffffffffffffffffffffffffffffffffffffff168373ffffffffffffffffffffffffffffffffffffffff167f8c5be1e5ebec7d5bd14f71427d1e84f3dd0314c0f7b2291e5b200ac8c7c3b92583604051610a3291906117bd565b60405180910390a3505050565b600073ffffffffffffffffffffffffffffffffffffffff168273ffffffffffffffffffffffffffffffffffffffff161415610aaf576040517f08c379a0000000000000000000000000000000000000000000000000000000008152600401610aa69061179d565b60405180910390fd5b610abb60008383610e9a565b8060026000828254610acd9190611898565b92505081905550806000808473ffffffffffffffffffffffffffffffffffffffff1673ffffffffffffffffffffffffffffffffffffffff168152602001908152602001600020600082825401925050819055508173ffffffffffffffffffffffffffffffffffffffff16600073ffffffffffffffffffffffffffffffffffffffff167fddf252ad1be2c89b69c2b068fc378daa952ba7f163c4a11628f55a4df523b3ef83604051610b7e91906117bd565b60405180910390a3610b9260008383610e9f565b5050565b6000610ba284846107e5565b90507fffffffffffffffffffffffffffffffffffffffffffffffffffffffffffffffff8114610c1c5781811015610c0e576040517f08c379a0000000000000000000000000000000000000000000000000000000008152600401610c059061165d565b60405180910390fd5b610c1b8484848403610874565b5b50505050565b600073ffffffffffffffffffffffffffffffffffffffff168373ffffffffffffffffffffffffffffffffffffffff161415610c92576040517f08c379a0000000000000000000000000000000000000000000000000000000008152600401610c899061171d565b60405180910390fd5b600073ffffffffffffffffffffffffffffffffffffffff168273ffffffffffffffffffffffffffffffffffffffff161415610d02576040517f08c379a0000000000000000000000000000000000000000000000000000000008152600401610cf99061161d565b60405180910390fd5b610d0d838383610e9a565b60008060008573ffffffffffffffffffffffffffffffffffffffff1673ffffffffffffffffffffffffffffffffffffffff16815260200190815260200160002054905081811015610d93576040517f08c379a0000000000000000000000000000000000000000000000000000000008152600401610d8a9061169d565b60405180910390fd5b8181036000808673ffffffffffffffffffffffffffffffffffffffff1673ffffffffffffffffffffffffffffffffffffffff16815260200190815260200160002081905550816000808573ffffffffffffffffffffffffffffffffffffffff1673ffffffffffffffffffffffffffffffffffffffff168152602001908152602001600020600082825401925050819055508273ffffffffffffffffffffffffffffffffffffffff168473ffffffffffffffffffffffffffffffffffffffff167fddf252ad1be2c89b69c2b068fc378daa952ba7f163c4a11628f55a4df523b3ef84604051610e8191906117bd565b60405180910390a3610e94848484610e9f565b50505050565b505050565b505050565b6000610eb7610eb284611824565b6117f3565b90508083825260208201905082856020860282011115610ed657600080fd5b60005b85811015610f065781610eec8882610f7c565b845260208401935060208301925050600181019050610ed9565b5050509392505050565b6000610f23610f1e84611850565b6117f3565b90508083825260208201905082856020860282011115610f4257600080fd5b60005b85811015610f725781610f588882610fe5565b845260208401935060208301925050600181019050610f45565b5050509392505050565b600081359050610f8b81611a8f565b92915050565b600082601f830112610fa257600080fd5b8135610fb2848260208601610ea4565b91505092915050565b600082601f830112610fcc57600080fd5b8135610fdc848260208601610f10565b91505092915050565b600081359050610ff481611aa6565b92915050565b60006020828403121561100c57600080fd5b600061101a84828501610f7c565b91505092915050565b6000806040838503121561103657600080fd5b600061104485828601610f7c565b925050602061105585828601610f7c565b9150509250929050565b60008060006060848603121561107457600080fd5b600061108286828701610f7c565b935050602061109386828701610f7c565b92505060406110a486828701610fe5565b9150509250925092565b600080604083850312156110c157600080fd5b60006110cf85828601610f7c565b92505060206110e085828601610fe5565b9150509250929050565b600080604083850312156110fd57600080fd5b600083013567ffffffffffffffff81111561111757600080fd5b61112385828601610f91565b925050602083013567ffffffffffffffff81111561114057600080fd5b61114c85828601610fbb565b9150509250929050565b61115f81611900565b82525050565b60006111708261187c565b61117a8185611887565b935061118a818560208601611943565b61119381611a7e565b840191505092915050565b60006111ab602383611887565b91507f45524332303a207472616e7366657220746f20746865207a65726f206164647260008301527f65737300000000000000000000000000000000000000000000000000000000006020830152604082019050919050565b6000611211602283611887565b91507f45524332303a20617070726f766520746f20746865207a65726f20616464726560008301527f73730000000000000000000000000000000000000000000000000000000000006020830152604082019050919050565b6000611277601d83611887565b91507f45524332303a20696e73756666696369656e7420616c6c6f77616e63650000006000830152602082019050919050565b60006112b7601d83611887565b91507f416d6f756e74206d7573742062652067726561746572207468616e20300000006000830152602082019050919050565b60006112f7602683611887565b91507f45524332303a207472616e7366657220616d6f756e742065786365656473206260008301527f616c616e636500000000000000000000000000000000000000000000000000006020830152604082019050919050565b600061135d601483611887565b91507f496e73756666696369656e742062616c616e63650000000000000000000000006000830152602082019050919050565b600061139d601683611887565b91507f417272617973206c656e677468206d69736d61746368000000000000000000006000830152602082019050919050565b60006113dd601983611887565b91507f496e76616c696420726563697069656e742061646472657373000000000000006000830152602082019050919050565b600061141d602583611887565b91507f45524332303a207472616e736665722066726f6d20746865207a65726f20616460008301527f64726573730000000000000000000000000000000000000000000000000000006020830152604082019050919050565b6000611483601683611887565b91507f496e76616c69642073656e6465722061646472657373000000000000000000006000830152602082019050919050565b60006114c3602483611887565b91507f45524332303a20617070726f76652066726f6d20746865207a65726f2061646460008301527f72657373000000000000000000000000000000000000000000000000000000006020830152604082019050919050565b6000611529602583611887565b91507f45524332303a2064656372656173656420616c6c6f77616e63652062656c6f7760008301527f207a65726f0000000000000000000000000000000000000000000000000000006020830152604082019050919050565b600061158f601f83611887565b91507f45524332303a206d696e7420746f20746865207a65726f2061646472657373006000830152602082019050919050565b6115cb8161192c565b82525050565b6115da81611936565b82525050565b60006020820190506115f56000830184611156565b92915050565b600060208201905081810360008301526116158184611165565b905092915050565b600060208201905081810360008301526116368161119e565b9050919050565b6000602082019050818103600083015261165681611204565b9050919050565b600060208201905081810360008301526116768161126a565b9050919050565b60006020820190508181036000830152611696816112aa565b9050919050565b600060208201905081810360008301526116b6816112ea565b9050919050565b600060208201905081810360008301526116d681611350565b9050919050565b600060208201905081810360008301526116f681611390565b9050919050565b60006020820190508181036000830152611716816113d0565b9050919050565b6000602082019050818103600083015261173681611410565b9050919050565b6000602082019050818103600083015261175681611476565b9050919050565b60006020820190508181036000830152611776816114b6565b9050919050565b600060208201905081810360008301526117968161151c565b9050919050565b600060208201905081810360008301526117b681611582565b9050919050565b60006020820190506117d260008301846115c2565b92915050565b60006020820190506117ed60008301846115d1565b92915050565b6000604051905081810181811067ffffffffffffffff8211171561181a57611819611a4f565b5b8060405250919050565b600067ffffffffffffffff82111561183f5761183e611a4f565b5b602082029050602081019050919050565b600067ffffffffffffffff82111561186b5761186a611a4f565b5b602082029050602081019050919050565b600081519050919050565b600082825260208201905092915050565b60006118a38261192c565b91506118ae8361192c565b9250827fffffffffffffffffffffffffffffffffffffffffffffffffffffffffffffffff038211156118e3576118e26119f1565b5b828201905092915050565b60006118f98261190c565b9050919050565b60008115159050919050565b600073ffffffffffffffffffffffffffffffffffffffff82169050919050565b6000819050919050565b600060ff82169050919050565b60005b83811015611961578082015181840152602081019050611946565b83811115611970576000848401525b50505050565b6000600282049050600182168061198e57607f821691505b602082108114156119a2576119a1611a20565b5b50919050565b60006119b38261192c565b91507fffffffffffffffffffffffffffffffffffffffffffffffffffffffffffffffff8214156119e6576119e56119f1565b5b600182019050919050565b7f4e487b7100000000000000000000000000000000000000000000000000000000600052601160045260246000fd5b7f4e487b7100000000000000000000000000000000000000000000000000000000600052602260045260246000fd5b7f4e487b7100000000000000000000000000000000000000000000000000000000600052604160045260246000fd5b6000601f19601f8301169050919050565b611a98816118ee565b8114611aa357600080fd5b50565b611aaf8161192c565b8114611aba57600080fd5b5056fea264697066735822122001f5a62baffdb79728d666c52c2cba45952270ae8b50fc7650b32e657485fca464736f6c63430008000033",
  "linkReferences": {},
  "deployedLinkReferences": {}
}